:020000040800F2
:10000000280F002045010008A5290008352900080F
:100010006D290008990F0008856C00080000000099
:10002000000000000000000000000000F93400089B
:10003000851E000800000000952A0008D154000821
:10004000E56C00085F0100085F010008D12E000880
:100050005F0100085F0100085F0100085F01000800
:100060005F0100085F0100085F0100085F010008F0
:100070005F0100085F0100085F0100085F010008E0
:100080005F0100085F0100085F0100085F010008D0
:100090005F0100085F0100085F0100085F010008C0
:1000A0005F0100085F0100085F0100085F010008B0
:1000B0005F010008DD5600085F0100085F010008CD
:1000C0005F0100085F0100085F0100085F01000890
:1000D0005F010008ED6500088D6600089D67000857
:1000E0005F0100085F0100085F0100085F01000870
:1000F0005F0100085F0100085F0100085F01000860
:100100005F0100085F0100085F0100085F0100084F
:10011000D96300085F0100085F0100085F01000863
:100120005F0100085F0100085F0100085F0100082F
:10013000DFF80CD000F0D6FC00480047397D0008FD
:10014000280F00200648804706480047FEE7FEE7E4
:10015000FEE7FEE7FEE7FEE7FEE7FEE7FEE7FEE777
:1001600055550008310100080649074A0868504300
:1001700043F23902104408604008704701490860A2
:1001800070470000A00000206D4EC64140EA010308
:100190009B0703D009E008C9121F08C0042AFAD23D
:1001A00003E011F8013B00F8013B521EF9D2704701
:1001B000D2B201E000F8012B491EFBD270470022A9
:1001C000F6E710B513460A4604461946FFF7F0FF56
:1001D000204610BD421E12F8013F002BFBD111F842
:1001E000013B02F8013B002BF9D17047421C10F88B
:1001F000011B0029FBD1801A7047F0B480EA01028C
:10020000D40F4200B2EB410F02D20246084611461B
:100210004A0042D0C30DDDB2C1F3C752AD1A202D42
:1002200035DAC1F3160141F4000204B15242C5F1BE
:10023000200602FA06F12A411044B3EBD05F23D026
:10024000C4B1012DA0EBC35009DCF0BC4FF000425B
:1002500002EAC35200F50000DBB200F088BB4000A8
:1002600000F1807000EBC350A0F1807040EAD170C3
:10027000490009E0490841EAC071A0EBC35000F50C
:100280000000400800EBC350F0BC00F067BB6142C7
:10029000012202EB4101001BF6E7F0BC704781F040
:1002A0000041AAE780F00040A7E780EA010210B50C
:1002B00002F00043400026D04A0023D04FEA1061EC
:1002C00001EB1261C0F35600C2F3560240F4000085
:1002D00042F40002A0FB0220A1F17F014FEA00409E
:1002E000140401D000F1010050EA124001D4400092
:1002F000491EC2B20C0604EBD010401C4008802AF4
:1003000002D003E0002010BD20F00100002900DA37
:100310000020184310BD30B480EA010202F000450D
:1003200030F0004221F0004015D0A0B1C0F3C75317
:10033000C2F3C754C2F31601C0F31600E41A41F425
:10034000000140F400027D34914201D3641C00E0BE
:100350004900002C02DA30BC002070474FF4000046
:100360000023914201D3891A034340084FEA410117
:10037000F7D151B1914202D14FF0004105E002D2D4
:100380004FF0010101E06FF0010103EBC45028447C
:1003900030BC00F0E3BA2DE9FE4F804681EA03004D
:1003A000C00F0C46009021F0004123F00045B8EB4F
:1003B0000200A94105D24046214690461C460B4604
:1003C000024623F00040104304D14046214603B0CA
:1003D000BDE8F08F270DC7F30A00C3F30A5102905E
:1003E000401A0190402866DAC3F3130040F4801BE2
:1003F0000098924620B10023D2EB030A63EB0B0B6B
:1004000001985946C0F14002504600F076FA06467F
:100410000D4650465946019A00F08EFA10EB08003E
:100420006141002487EA115284EAE7731A433BD002
:10043000009A3AB3019A012A4FEA075210DC001BD6
:1004400061EB02014FF0004202EA0752CDE900429F
:10045000001C41F5801132462B4600F0C2FAB6E787
:10046000001B61EB0201001C41F5801300185B4189
:100470002018A2F5001747EB030140EAD570B61922
:100480006D4111E06D084FEA360645EAC0754FEA46
:100490000752001B61EB0201001C41F58011490865
:1004A0004FEA30000019514132462B4603B0BDE8F7
:1004B000F04F00F089BA0098012240000023D0EBF1
:1004C000020263EBE073009821464FEAE074B8EB58
:1004D000000061EB0401E9E783F000435BE781F092
:1004E000004158E72DE9FE4F81EA030404F000447F
:1004F00021F0004100944FF0000B23F0004350EA3C
:10050000010402D052EA030404D10020014603B0E2
:10051000BDE8F08FC3F30A54C1F30A552C44A4F28A
:10052000F3340194A0FB0254C1F3130141F4801190
:10053000C3F3130343F4801301FB024400FB034E97
:10054000840A970A44EA815447EA8357A4FB076860
:1005500002958D0A05FB07854FEA932C04FB0C548A
:100560002705029D4FEA065847EA1637B5EB0805FE
:100570006EEB070C870E920E47EA811742EA831250
:10058000A7FB0201B6EB0B0164EB00042B0D43EA61
:100590000C335E1844EB1C50DA465146E7FB02016F
:1005A000C5F313044FEA0B3343EA14534FEA043202
:1005B000019C43EA0603A4F10C040294009CCDE9DB
:1005C00000B400F00EFAA2E72DE9F04D81EA030431
:1005D00004F0004B21F0004514464FF0000A23F0D0
:1005E000004150EA050220D054EA01021DD0C5F3B3
:1005F0000A570246C5F31303C1F31300C1F30A56A9
:1006000040F4801543F48013A7EB0608101BD64670
:1006100008F2FD3873EB050002D308F1010801E090
:1006200092185B41B8F1000F03DA00200146BDE8E3
:10063000F08D00204FF48011064684460EE0171B13
:1006400073EB050705D3121B63EB050306434CEA66
:10065000010C49084FEA300092185B4150EA01074B
:10066000EDD152EA030012D082EA040083EA0501C8
:10067000084303D100224FF0004308E0101BAB41B8
:1006800002D20122002302E06FF0010253101AEBA4
:1006900006004CEB085110EB0A0041EB0B01BDE8E2
:1006A000F04D00F091B9C10F80EAE0700844CA072C
:1006B0009623002100F05BB996230022114600F03A
:1006C00056B90EB5C10F80EAE0700844CA07002190
:1006D00040F233438DE80E000A460B4600F081F9E4
:1006E00003B000BD0EB540F2334102910021CDE9C7
:1006F00000110A460B4600F074F903B000BD20F06B
:100700000040C10DC0F3160040F400007F2901DA5B
:1007100000207047962903DCC1F19601C84070475C
:1007200096398840704770B5C1F30A5201F0004510
:100730000024C1F3130140F2FF3341F480119A42C7
:1007400001DA002070BD40F233439A42A2F23342F4
:1007500003DC524200F0E0F800E090402C43F1D07E
:10076000404270BDC1F30A5210B5C1F3130140F20B
:10077000FF3341F480119A4201DA002010BD40F2AB
:1007800033439A42A2F2334203DC524200F0C4F8EF
:1007900010BD904010BD00F0004230F000400AD083
:1007A000C10D01F56071C0F3160042EA0151C208A3
:1007B00040071143704700200146704730B50029BB
:1007C00004DB4FF00044404264EB0101002B04DBEA
:1007D0004FF00044524264EB03038B4208BF824255
:1007E00030BD000030B5002904DB4FF0004440422A
:1007F00064EB0101002B04DB4FF00044524264EB38
:100800000303994208BF904230BD000001F000434D
:1008100030B421F0004150EA010206D00A0DA2F5E1
:100820006072C1F31301002A02DC30BC0020704763
:10083000440F44EAC104C100E01830BC00EBC250D0
:1008400000F08CB8002801DBC0F10040002901DB7A
:10085000C1F1004181427047002801DBC0F1004036
:10086000002901DBC1F100418842704730B50B46D9
:10087000014600202022012409E021FA02F59D42D0
:1008800005D303FA02F5491B04FA02F52844151EA4
:10089000A2F10102F1DC30BD2DE9F05F0546002038
:1008A00092469B4688460646814640241BE02846E1
:1008B00041464746224600F02FF853465A46C01A92
:1008C000914110D311461846224600F016F82D1A11
:1008D00067EB01084F4622460120002100F00DF889
:1008E00017EB00094E41201EA4F10104DFDC48464D
:1008F00031462A464346BDE8F09F202A04DB203AD1
:1009000000FA02F1002070479140C2F1200320FA62
:1009100003F3194390407047202A04DB203A21FA60
:1009200002F00021704721FA02F3D040C2F1200208
:100930009140084319467047202A06DBCB17203A1E
:1009400041FA02F043EAE07306E041FA02F3D040D4
:10095000C2F1200291400843194670470029A8BF00
:100960007047401C490008BF20F00100704710B4D8
:10097000B0FA80FC00FA0CF050EA010404BF10BC8D
:10098000704749B1CCF1200421FA04F411FA0CF1BA
:1009900018BF012121430843A3EB0C01CB1D010625
:1009A000000A002BBEBF002010BC704700EBC350F4
:1009B00010440029A4BF10BC7047401C490008BF68
:1009C00020F0010010BC704710B5002B08DA401C65
:1009D00041F1000192185B411A4301D120F001005E
:1009E00010BD2DE9F04D92469B4611B1B1FA81F24E
:1009F00002E0B0FA80F220329046FFF77EFF044614
:100A00000F4640EA0A0041EA0B0153465A460843A2
:100A100003D120463946BDE8F08D114653EA010066
:100A200015D0C8F140025046FFF776FF05460E4646
:100A3000504659464246FFF760FF084301D0012067
:100A400000E00020054346EAE0762C4337430A984D
:100A50004FEA4453A0EB08004FEAD4240A304FF089
:100A6000000244EA47544FEAD72502D50020014648
:100A7000D1E7010510196941DDE90845001969410F
:100A8000BDE8F04DA0E770B521F0004303430CD062
:100A9000C1F30A550024D5EB040564EB0403D61713
:100AA000AD1AB34102DB0020014670BD201841EBB6
:100AB000025170BDC1F30A52C1F3130140F2FF337A
:100AC00041F480119A4202DA00200146704740F258
:100AD00033439A42A2F2334202DC5242FFF71CBF78
:100AE000FFF70BBF064C074D06E0E06840F001033E
:100AF00094E8070098471034AC42F6D3FFF71CFB8C
:100B0000688F0008888F00082DE9F04D00231A46F1
:100B10001B1A8A4103DB00200146BDE8F08DC1F3BA
:100B20000A52C1F3130141F480154FF0000BD107B5
:100B300002D100186D41521E0027044640F2FF11F9
:100B4000384601EB620A3E468046024600204FF4DA
:100B50008011FFF7E1FEC2197141BB1846EB01009D
:100B6000B4EB030C75EB000C04D3E41A65EB000541
:100B700017460E46241908F101006D4180463428BD
:100B8000E3DDF91946EB0600091BA84103D24FF03B
:100B9000FF32134601E0002213461BEB070046EB31
:100BA0000A51BDE8F04DFFF70FBF21B1826842F056
:100BB0000102826003E0826822F0010282607047D5
:100BC00021B1826842F48072826003E0826822F47C
:100BD000807282607047014600208A6812F0040F1C
:100BE00001D0012000E000207047014600208A6803
:100BF00012F0080F01D0012000E000207047000033
:100C000030B502460020002350680F4C20400D797B
:100C10000C6844EA05242043506090680B4C204047
:100C2000D1E902542C434D7944EA450420439060B5
:100C3000D06A20F470000C7C641EE4B2234340EAC6
:100C40000350D06230BD0000FFFEF0FFFDF7F1FF62
:100C5000F0B504460D4600200021092D11DDE068A5
:100C6000A5F10A0606EB4607072606FA07F18843B0
:100C7000A5F10A0606EB460603FA06F10843E06012
:100C80000CE0206905EB4507072606FA07F18843C3
:100C900005EB450603FA06F108432061072A0FDA3F
:100CA000606B561E06EB86071F2606FA07F188437F
:100CB000561E06EB860605FA06F10843606322E03D
:100CC0000D2A0FDA206BD61F06EB86071F2606FAC1
:100CD00007F18843D61F06EB860605FA06F108439E
:100CE000206310E0E06AA2F10D0606EB86071F26DE
:100CF00006FA07F18843A2F10D0606EB860605FA0F
:100D000006F10843E062F0BD816841F008018160AE
:100D1000704721B1826842F4A002826003E08268D9
:100D200022F4A00282607047816841F00401816072
:100D30007047000000B591B001F03CFB36A006F012
:100D40003FF83B4800F08CFC3A4801903A4802904A
:100D500000200390012004900020059006904FF49D
:100D600080700790800008902020099000020A906F
:100D700000200B9001A92E4800F01CFD01212C48F9
:100D800000F062FC00200C908DF8340001208DF8FA
:100D900035004FF460200E9000200F9001208DF858
:100DA00040000CA923484C38FFF72AFF4FF440407D
:100DB00001F0F0FE0523012211461E484C38FFF7D2
:100DC00047FF01211B484C38FFF7FAFE0121194863
:100DD0004C38FFF7EAFE17484C38FFF795FF00BF85
:100DE00014484C38FFF701FF0028F9D111484C385E
:100DF000FFF79AFF00BF0F484C38FFF7ECFE0028C2
:100E0000F9D101210B484C38FFF783FF0BA005F007
:100E1000D7FF11B000BD00000D0A456E7465722049
:100E200041444320436F6E666967210D0A0000004C
:100E3000080002404C2401409E0000200D0A456E2F
:100E4000642041444320436F6E666967210D0A00A8
:100E50002DE9F04104460D461646FF2C03D90CA09F
:100E600005F0AEFFFF240F2D03D90EA005F0A8FF5B
:100E70000F250F2E03D910A005F0A2FF0F26200486
:100E800000EB053000EB06273846BDE8F081000096
:100E9000626C6F636B206D6178203A3235362121A8
:100EA00000000000736563746F72206D6178203AF2
:100EB000313621210000000070616765206D617886
:100EC000203A31362121000030B5B3B00446C821A4
:100ED00001A8FFF774F9C82101A8FFF770F9124BB8
:100EE00012A2C82101A805F07BFF01A806F0FAFFB5
:100EF000124800F0E5FFC82101A8FFF760F920467D
:100F0000FFF774F905462B462246C72101A805F0D4
:100F100067FF01A802F098FC01A806F0E3FF08486B
:100F200000F0CEFF33B030BDBE00002041542B4353
:100F30004D47533D222573220000000020A10700E9
:100F400040420F0010B5012001F080FE002001F0AA
:100F50007DFE10BD08B501460020009003480090BA
:100F60000098084400900098008808BD006C00407C
:100F7000014908607047000000860D4208B5002254
:100F80000092044A0092009A02440092009A116072
:100F900008BD0000006C004010B503E003A005F0A0
:100FA0000FFF00E0FAE700BF10BD00000D0A576117
:100FB000726E6E696E672121204275734661756C91
:100FC00074204F6363757265640D0A00F0B50546C1
:100FD0000E464FF6FF7418E0287802F01BF884EAFA
:100FE000002400270EE014F4004F05D048F205005D
:100FF00080EA440084B203E04FF6FF7000EA440444
:10100000781CC7B2082FEEDB6D1C3000A6F1010181
:101010008EB2E1D1204602F00DF8F0BD2DE9F0438B
:1010200085B00446002001900290039004900026B1
:1010300000258146FFF79CFF0220E04B002201467D
:101040000090104600F040FEDC483E3890F83F101B
:1010500090F83E0001EB002085B2002D03DD3C2D11
:1010600001DC258001E03C2020802188D4A005F00F
:10107000A7FE0220D14B9B1C0022032100901046AA
:1010800000F022FECD483E3890F8411090F8400024
:1010900001EB002085B2002D04DDB5F5B46F01DC55
:1010A000658001E03C2060806188D1A005F088FE69
:1010B0000F20C24B2E3B002204210090104600F06E
:1010C00003FE00250DE0BD482E38405D302807DBCB
:1010D000BA482E38405D392802DC681C85B200E031
:1010E00001E00F2DEFDB00BFEEB20B2E03D00D2E73
:1010F00001D00F2E11D1B1483E38007C38280CD1D8
:10110000AE483E38407C362807D13246AB492E39AE
:1011100004F11200FFF73AF805E00F22C0A104F134
:101120001200FFF733F804F11201C1A005F048FEE8
:101130000F20A24B1E3B002205210090104600F01C
:10114000C3FD9E481E38FFF751F8C6B2002512E0D5
:101150009A481E38405D302804DB98481E38405DB0
:10116000392804DD95481E38405D2E2802D1681CC0
:1011700085B200E001E00F2DEADB00BFEEB2092EE0
:1011800001DD012000E000200F2807DA32468B49FC
:101190001E3904F12200FEF7F9FF05E00E22B0A18E
:1011A00004F12200FEF7F2FF04F12201B0A005F0E5
:1011B00007FE0520814B0E3B0022062100901046C1
:1011C00000F082FD00250DE07C480E38405D30289F
:1011D00007DB7A480E38405D392802DC681C85B28E
:1011E00000E001E0052DEFDB00BFEEB2002E07DDD1
:1011F000324672490E3904F13200FEF7C7FF03E0B0
:10120000A7A00068C4F8320004F13201A6A005F0DE
:10121000D7FD0420694B083B0022072100901046AF
:1012200000F052FD65483E38D0F836904846FFF74A
:10123000B2FA074600221346FFF7D4FA0ED2484608
:10124000FFF7A9FA07460022A44BFFF7B7FA05D229
:101250005A483E38D0F83600A06301E0A048A063A9
:10126000A06BFFF798FA07463A460B469DA005F09B
:10127000A7FD0220514B1B1D0022082100901046A3
:1012800000F022FD4D483E3890F8431090F842009F
:1012900001EB002085B2002D04DBB5F5B46F01DC55
:1012A000A58001E00020A080A1889BA005F088FD1A
:1012B0000120424B9B1D002209210090104600F0A6
:1012C00003FD3E483E3890F8445029469FA005F063
:1012D00077FD0120394BDB1D00220A2100901046CA
:1012E00000F0F2FC35483E3890F84550002D03DD03
:1012F0000A2D01DCE57101E00320E071E1799FA096
:1013000005F05EFD04202D4B1B1F00220B210090D9
:10131000104600F0D9FC29483E38D0F83A904846AB
:10132000FFF739FA074600221346FFF75BFA13D29C
:101330004846FFF730FA074600229C4BFFF73EFA7B
:101340000AD21E483E38D0F836104846FFF784FAD5
:1013500002D2C4F83C9001E09548E063E06BFFF7EF
:101360001AFA07463A460B4692A005F029FD0420DA
:10137000124B083300220C210090104600F0A4FC10
:101380000E483E3890F8471090F8460001EB0020D8
:1013900085B2A4F80950B4F8091093A005F010FD27
:1013A00000F01EFB2072074639469BA005F008FDA1
:1013B0000020607405B0BDE8F08300002A01002021
:1013C0000D0A2A2A2A2A2A2A2A2A2A2A2A2A2A2ABA
:1013D000B2C9BCAFD6DCC6DA2D2D3E3E2025642036
:1013E0002A2A2A2A2A2A2A2A2A2A2A0D0A00000018
:1013F0000D0A2A2A2A2A2A2A2A2A2A2A2A2A2A2A8A
:10140000C9CFB1A8D6DCC6DA2D2D3E3E20256420FA
:101410002A2A2A2A2A2A2A2A2A2A2A200D0A0000C7
:1014200038363130363436313731373830303400B1
:101430000D0A2A2A2A2A2A2A2A2A2A2A2A2A2A2A49
:10144000B1A8BEAFB5E7BBB02D2D3E3E2025732021
:101450002A2A2A2A2A2A2A2A2A2A2A200D0A000087
:101460003132342E34322E3131382E3836000000ED
:101470000D0A2A2A2A2A2A2A2A2A2A2A2A2A2A2A09
:10148000CDF8C2E749502D2D3E3E202573202A2A53
:101490002A2A2A2A2A2A2A2A2A200D0A000000009B
:1014A00032303137000000000D0A2A2A2A2A2A2A5F
:1014B0002A2A2A2A2A2A2A2ACDF8C2E7B6CBBFDA54
:1014C000BAC52D2D3E3E202573202A2A2A2A2A2AF3
:1014D0002A2A2A2A2A200D0A00000000000039408A
:1014E0000000C8410D0A2A2A2A2A2A2A2A2A2A2A38
:1014F0002A2A2A2AB5CDB1A8BEAFC5A8B6C82D2DB7
:101500003E3E2025302E3266202A2A2A2A2A2A2ADE
:101510002A2A2A2A2A0D0A000D0A2A2A2A2A2A2ACF
:101520002A2A2A2A2A2A2A2ABFAACABCB2C9BCAF96
:10153000CAB1BCE42D2D3E3E202564202A2A2A2A49
:101540002A2A2A2A2A2A2A0D0A0000000D0A2A2AF3
:101550002A2A2A2A2A2A2A2A2A2A2A2AD2D1B2C975
:10156000BCAFCAFDC1BF2D2D3E3E202564202A2AD6
:101570002A2A2A2A2A2A2A2A2A0D0A000D0A2A2A6F
:101580002A2A2A2A2A2A2A2A2A2A2A2AD6D8B4AB56
:10159000B4CECAFD2D2D3E3E202564202A2A2A2ABB
:1015A0002A2A2A2A2A2A2A0D0A0000000000494075
:1015B000000048420D0A2A2A2A2A2A2A2A2A2A2AE6
:1015C0002A2A2A2AB8DFB1A8BEAFC5A8B6C82D2DD1
:1015D0003E3E2025302E3266202A2A2A2A2A2A2A0E
:1015E0002A2A2A2A0D0A00000D0A2A2A2A2A2A2A29
:1015F0002A2A2A2A2A2A2A2AB9A4D7F7B4CECAFD27
:101600002D2D3E3E202564202A2A2A2A2A2A2A2AEB
:101610002A2A2A0D0A0000000D0A2A2A2A2A2A2A22
:101620002A2A2A2A2A2A2A2AB5E7B3D8B5E7C1BF27
:101630002D2D3E3E2025642525202A2A2A2A2A2AC5
:101640002A2A2A2A2A0D0A0021B1026842F0010240
:10165000026004E002684FF6FE731A4002607047B1
:1016600001684FF6FE721140016000210160416087
:101670008160C1604B49884208D14A4908394968AC
:1016800041F00F01474A083A51608AE04549143158
:10169000884208D143490839496841F0F001414A7C
:1016A000083A51607DE03F492831884208D13D49E0
:1016B0000839496841F470613A4A083A516070E06B
:1016C00038493C31884208D136490839496841F4E3
:1016D0007041344A083A516063E0324950318842DF
:1016E00008D130490839496841F470212D4A083A37
:1016F000516056E02B496431884208D129490839A4
:10170000496841F47001274A083A516049E0254987
:101710007831884208D123490839496841F070611D
:10172000204A083A51603CE01F49884206D1011F17
:10173000096841F00F01021F116032E01A491431AB
:10174000884208D11849091F096841F0F001164A7A
:10175000121F116025E014492831884208D112492E
:10176000091F096841F470610F4A121F116018E0E7
:101770000D493C31884208D10B49091F096841F4E1
:101780007041094A121F11600BE00749503188422D
:1017900007D10549091F096841F47021024A121F47
:1017A0001160704708000240080402400146486882
:1017B00080B2704710B50022026847F6F0739A4372
:1017C0000C6A8B6823430C6923434C6923438C695F
:1017D0002343CC6923434C6A23438C6A23431A4333
:1017E0000260CB6843600B6883604B68C36010BDC8
:1017F00070B50024002500264FF47A713548FEF7B5
:10180000DEFC35488068344908603448FFF7CEFF75
:10181000C0F5FA743048C068A04204DA2E488089C6
:10182000201A86B205E02C48C068C0F5FA70204442
:1018300086B22948C46000683044401EB0F5FA7F83
:1018400006DA254800683044401E2349486006E017
:10185000214800683044A0F2F5101F4948601E4836
:101860004068A0F58071F33903D100201A498860DF
:1018700004E019484068401C1749886046B3164880
:10188000056840681449096888420ADD002405E0BB
:101890001348405D0F490855641C6D1CB442F7DBCA
:1018A00016E0002412E0B5F5F97F05DC0C48405D38
:1018B000084908556D1C08E0A5F58070F33804D17F
:1018C0000748405D034908550025641CB442EADB23
:1018D000304670BD78060020680600206C0002408B
:1018E000740400202DE9F04704460E4617464FF0D9
:1018F00000080025A9461B48007801282ED1FFF7D3
:1019000077FF8046B8F1000F1DDD00BF05E01648E7
:10191000415D16A005F054FA6D1C4545F7DB012C1E
:1019200003D100F067FF814610E0022C03D100F0E4
:1019300091FF81460AE0032C08D13946304600F079
:10194000F3FE814602E00BA005F03AFA4FF4FA717B
:101950000B48FEF734FC0020024908704846BDE8F9
:10196000F087000034000020780600202025782031
:10197000000000000D0A4E6F20646174610D0A00C2
:101980007404002036200149087070478D00002043
:1019900008B50121112001F039F98020ADF80000CF
:1019A00004208DF803006946014800F01BFD08BDC6
:1019B0000010014008B50121112001F027F9802015
:1019C000ADF8000010208DF8030003208DF8020010
:1019D0006946024800F006FD08BD00000010014005
:1019E0002DE9F84F0027B846B94600240025002607
:1019F000A24645480078B8B90120444B0022014670
:101A00000090104600F060F940480078712805DD2C
:101A100071203E4908703EA005F0D2F93B4801789C
:101A200040A005F0CDF90AE00120384B0022014624
:101A30000090104600F0B4F900203349087006F019
:101A4000EDF887B206F0A4F81FFA80F806F036F831
:101A50001FFA80F9C8F30E05294636A005F0B0F943
:101A60002A48057806F06CF884B2214639A005F0C2
:101A7000A7F98CB94FF47A7006F0DEFF3D4800F00C
:101A80001FFA2248007838B120480078401E1F49CC
:101A9000087006F055F884B24FF47A7094FBF0F0B9
:101AA0001A49097800EB010B5846FEF7FCFD824607
:101AB00031495046FEF7F9FB30490090FEF72BFC08
:101AC0008346FEF71CFEC6B239462DA005F078F914
:101AD000494633A005F074F9214639A005F070F9A4
:101AE00031463FA005F06CF908480078854207D0E0
:101AF0000120064B002201460090104600F050F9EC
:101B00003046BDE8F88F00002D0000208D00002039
:101B10000A0D205265674220204552524F52212122
:101B20000D0A00000A0D20526567423A2564200D17
:101B30000A0000000A0D20B5E7B3D8B5E7C1F76386
:101B4000757272656E743A256420286D41290D0AFC
:101B5000000000000A0D204241545420436170618E
:101B600063697479206C6566743A2564206D4168F8
:101B70000D0A000040420F000000C8420000E4428D
:101B80000A0D20B5E7B3D8B5E7D1B9766F6C7461AB
:101B900067653A256420286D56290D0A000000006B
:101BA0000A0D20B5E7C1BFC0DBBCC6616363756DBC
:101BB000756C6174653A2564206D41680D0A0000FA
:101BC0000A0D20CAA3D3E0BEF8B6D4B5E7C1BF5210
:101BD0004141433A2564206D41680D0A0000000030
:101BE0000A0D20CAA3D3E0CFE0B6D4B5E7C1BF4603
:101BF000554C4C5F7374617475733A256425250DDB
:101C00000A000000F0B593B0342106A8FEF7D7FA19
:101C10001A48007810B91A48057801E01748057885
:101C2000072004AB002229460090012000F04CF868
:101C3000002407E0A01C04A9095C0DF10A0001556D
:101C4000601CC4B2042CF5DBDDF80A00FEF7A3FD2E
:101C50000CA2CDE90001322106A805F0C1F806A9C1
:101C600011A005F0ADF8164800F02AF906A8FFF714
:101C70002BF9144800F024F913B0F0BD4000002007
:101C8000300000200D2043757272656E74207365FC
:101C90006E736F7220646174612069733A2025301D
:101CA0002E326620210D00000D0A53656E642074EB
:101CB0006F2050686F6E653A202573200D0A000072
:101CC00080841E0040420F002DE9F04705460E4675
:101CD00017461C46DDF820803A4631462846FFF775
:101CE000B7F8814601F080FA01F012FB1049086054
:101CF0004FF4487000F0E4F801F02AFB0D49086049
:101D00000B480268084601680BA005F059F809481D
:101D100000681749884207D116A005F051F84246DD
:101D20004946204601F0A4F901F0A8FBBDE8F08780
:101D300084000020880000200D0A20466C61736832
:101D4000494420697320307825782C20204D616E1D
:101D50007566616374757265722044657669636542
:101D600020494420697320307825780D0A0000004E
:101D70001840EF000D0A53504920466C61736820EB
:101D800057323551313238425620697320726561BD
:101D9000647920746F2072656164210D0A0000006F
:101DA0002DE9F04705460E4617461C46DDF8208013
:101DB0003A4631462846FFF74BF8814601F014FABF
:101DC00001F0A6FA134908604FF4487000F078F863
:101DD00001F0BEFA104908600E4802680846016822
:101DE0000EA004F0EDFF0C4800681A4988420DD19E
:101DF00019A004F0E5FF484601F0D4FA42464946EE
:101E0000204601F05FF9C82000F05AF801F036FBD7
:101E1000BDE8F08784000020880000200D0A2046DD
:101E20006C617368494420697320307825782C20D0
:101E3000204D616E756661637475726572204465CC
:101E40007669636520494420697320307825780DD0
:101E50000A0000001840EF000D0A53504920466C5C
:101E600061736820573235513132384256206973D8
:101E700020726561647920746F20777269746521BE
:101E80000D0A000010B502A004F09AFF10BD00007A
:101E90000D0A5761726E6E696E672121204465627A
:101EA0007567204D6F6E69746F7220657863657019
:101EB00074696F6E204F6363757265640D0A00006C
:101EC00001B50C49009808604FF0E020006940F02F
:101ED00001004FF0E021086100BF064800680028BB
:101EE000FBD14FF0E020006920F001004FF0E0212D
:101EF000086108BD4800002010B586B000242DA15F
:101F000003C9CDE9040100F0C7FF04462BA004F08B
:101F100057FF36A004F054FF40A004F051FF9DF895
:101F200015009DF814109DF81320CDE900210290B2
:101F30009DF812309DF811209DF8101042A004F079
:101F40003FFF4FA004F03CFF102159A004F038FFE0
:101F5000202162A004F034FF6D49204603F046FDC5
:101F60006B4800786B49C872694800790873684803
:101F7000007A48736648007B88736548007CC873A4
:101F80006348007DA0F5FA60087461480068604904
:101F900049685F4A9268CDE9002102905C48C368B5
:101FA000026941695C4804F00BFF5C48FFF788FF59
:101FB00006B010BD31201608310200000D0A2A2A91
:101FC0002A2A2A2A2A2A2A20B1B1BEA9BABDCCECD3
:101FD000BFC6C8F0B5E7D7D3D3D0CFDEB9ABCBBE41
:101FE000202A2A2A2A2A2A2A2A2A00000D0A2A2AEC
:101FF0002A2A2A2A2A2A2A2A2A2A2A20C8BCC6F8B1
:10200000D6C7C4DCBCE0B2E2D6D5B6CB202A2A2A99
:102010002A2A2A2A2A2A2A2A000000000D0A2A2A05
:102020002A2A2A2A2A2A2A2A2A2A2A204249524D98
:102030004D2D525455313030202A2A2A2A2A2A2A54
:102040002A2A2A2A000000000D0A2A2A2A2A2A2AD5
:102050002A2A2A2A2A2A2A20C9E8B1B84944BAC514
:10206000A3BA257820257820257820257820257882
:102070002025782A2A2A2A2A2A2A2A2A2A2A0000D5
:102080000D0A2A2A2A2A2A2A2A2A2A2A2A2A2A2AED
:1020900020D3B2BCFEC0E0D0CD3A20343333B0E61A
:1020A000B1BE202A2A2A2A2A2A2A2A2A2A000000FD
:1020B0000D0A2A2A2A2A2A2A2A2A2A2A2A2A2A2ABD
:1020C00020D3B2BCFEB0E6B1BEBAC53A2025782016
:1020D0002A2A2A2A2A2A2A2A2A2A2A000D0A2A2AC7
:1020E0002A2A2A2A2A2A2A2A2A2A2A2A20C8EDBC67
:1020F000FEB0E6B1BEBAC53A202578202A2A2A2A9F
:102100002A2A2A2A2A2A2A2A2A2A0D0A0D0A0000FD
:1021100064020020AC000020E48C0008C0C62D0042
:102120002DE9F04F85B005460E460020049081460B
:10213000039002900A2E03DD3D4804F041FE74E056
:10214000032E04DA3A48443004F03AFE6DE0286881
:102150000490D5F80090002411E055F8241004985C
:10216000FEF770FB02D255F82400049055F82410B5
:102170004846FEF771FB01D255F82490641CB44226
:10218000EBDB4846FEF707FB074688460498FEF758
:1021900002FB824652460B4626A0CDE9007804F0A9
:1021A0000FFE49460498FEF77AF88246FEF7F3FAE6
:1021B00007460022294BFEF715FB15D2012406E045
:1021C00055F824100398FEF718F80390641C701E4D
:1021D000A042F5DCB01EFEF766FA074639460398C2
:1021E000FEF799F8029013E0002406E055F8241059
:1021F0000398FEF702F80390641CB442F6DB304605
:10220000FEF751FA074639460398FEF784F8029024
:102210000298FEF7C0FA07463A460B4610A004F0B3
:10222000CFFD029805B0BDE8F08F00BFFAE70000CF
:102230005C8C00080D0A20544845204D4158206907
:10224000732025302E32662C20546865204D494E6F
:102250002069732025302E326600000000002040E7
:102260000D0A5448452061766572676520697320C0
:1022700025302E32660D0A002DE9F04306460F4642
:102280003546BC46002100248846002A01DB002B8D
:1022900002DA0020BDE8F0839A4201DA0020F9E773
:1022A0009A4212D112B90BB90020F3E7002108E0DD
:1022B000685C1CF80190484501D00020EAE7481C02
:1022C00001B29142F4DB2846E4E70BB90020E1E7D4
:1022D000D01A401C0FFA80F8002113E0002408E017
:1022E0000819285C1CF80490484500D003E0601CE5
:1022F00004B29C42F4DB00BF9C4201D16818C9E7DC
:10230000481C01B24145E9DB0020C3E72DE9F84F45
:1023100082468946D046CB46002600250024002769
:10232000002000905046FDF761FF06B24846FDF7D9
:102330005DFF05B2AE4202DA0020BDE8F88FAE4282
:1023400013D116B90DB90020F7E7002409E018F8F9
:1023500004001BF80410884201D00020EDE7601C47
:1023600004B2B442F3DB4046E7E70DB90020E4E7EE
:10237000701B401C00B20090002415E0002709E00B
:10238000E01918F800001BF80710884200D003E09D
:10239000781C07B2AF42F3DB00BFAF4202D108EBBB
:1023A0000400CAE7601C04B200988442E6DB002007
:1023B000C3E7000008B50121084600F0F7FB012142
:1023C0004FF4017000F022FC0220ADF80000002064
:1023D0008DF803006946024800F004F808BD0000CB
:1023E000000801402DE9F0410246002500260020AA
:1023F00000230024002791F803C00CF00F0591F88A
:1024000003C01CF0100F03D091F802C04CEA050580
:1024100091F800C0BCF1000F31D0146800202BE00F
:102420004FF0010C0CFA00F3B1F800C00CEA0306FF
:102430009E4220D183004FF00F0C0CFA03F7BC43EF
:1024400005FA03FC4CEA040491F803C0BCF1280F20
:1024500006D14FF0010C0CFA00FCC2F814C00AE0DF
:1024600091F803C0BCF1480F05D14FF0010C0CFAF4
:1024700000FCC2F810C0401C0828D1D31460B1F889
:1024800000C0BCF1FF0F34DD546800202EE000F1E5
:10249000080C4FF0010808FA0CF3B1F800C00CEA80
:1024A00003069E4221D183004FF00F0C0CFA03F774
:1024B000BC4305FA03FC4CEA040491F803C0BCF1E8
:1024C000280F05D100F1080C08FA0CF8C2F81480A6
:1024D00091F803C0BCF1480F07D100F1080C4FF090
:1024E000010808FA0CF8C2F81080401C0828CED366
:1024F0005460BDE8F0810246002093680B4201D091
:10250000012000E000207047416170470161704781
:1025100010B514A004F054FC4FF4FA711A48FDF7FA
:102520004EFE01224021194804F098F918A005F048
:10253000D9FC1B48FFF7C4FC1AA005F0D3FC1C48CB
:10254000FFF7BEFC1BA005F0CDFC1948FFF7B8FC57
:102550001EA005F0C7FC1248FFF7B2FC1EA004F055
:102560002FFC10BD0D0A46554E4354494F4E203A9C
:10257000475052535F436F6E6669672020737461E2
:10258000727421200D0A00007404002000480040ED
:1025900041545E554152545250543D3100000000A8
:1025A000400D030041542B434D47463D3100000090
:1025B000E093040041542B43504D533D224D45229E
:1025C0002C224D45222C224D4522000041542B4304
:1025D0004E4D493D312C31000D0A46554E4354496C
:1025E0004F4E203A475052535F436F6E66696720E3
:1025F00020656E6421200D0A0000000070B52824BB
:10260000022520A004F0DCFB4FF4FA712648FDF708
:10261000D6FD01224021254804F020F92448FFF787
:102620004FFC24A005F05EFC20E0601EC4B226A092
:1026300004F0C6FB2BA005F055FC2D48FFF740FC2D
:102640002CA005F04FFC2A48FFF73AFC0022114667
:102650000120FFF747F92A480078012806D1002019
:1026600027490870681EC5B205B901E0002CDCD10D
:1026700000BF1CB92349088805F0FCFA22A004F029
:102680009FFB70BD0D0A46554E4354494F4E203AAC
:10269000475052535F496E6974202073746172749D
:1026A00021200D0A000000007404002000480040B2
:1026B00040420F0041545E4D4F4445434F4E464902
:1026C000473D3139000000000D0A47505253204E5B
:1026D000657420536561726368696E672E2E2E0DD6
:1026E0000A00000041542B43475245473D3100004A
:1026F00000350C0041542B43475245473F00000032
:102700004E000020AC0000200D0A46554E435449AF
:102710004F4E203A475052535F496E6974202065EE
:102720006E6421200D0A00002DE9FF4705460E4684
:1027300000200390002425A103C9CDE9010125A0B3
:1027400000680090A046A146A24601A8FDF74EFDF4
:1027500007B23B464FF47A7201A91F48FFF78CFD80
:10276000044684B1204601F01DFC00241B48FFF7FD
:10277000A7FB1BA005F0B6FB1C48FFF7A1FB01203F
:1027800004B0BDE8F08702234FF47A72694612481C
:10279000FFF772FD0446ACB11548844212D220788E
:1027A000A32809D16078202806D133462A4603A9F8
:1027B000204603F0C1F905E00C48FFF781FB002437
:1027C0000020DDE7BDF80C00C0B2D9E72B434D4730
:1027D0004C3A0000A320000078060020C0C62D005F
:1027E00041542B434D47443D312C330020A1070079
:1027F0005F0A002010B500240B234FF47A720DA15C
:102800000F48FFF739FD044624B101200D49087037
:10281000002410BD0B234FF47A720BA10848FFF778
:102820002BFD044624B10120064908700024F0E77E
:102830000020EEE72B43475245473A20312C310028
:10284000780600204E0000202B43475245473A208F
:10285000312C350010B5002407234FF47A7205A1FE
:102860000648FFF709FD04460CB1012010BD002009
:10287000FCE70000434F4E4E4543540078060020CD
:1028800070B500F009FB0546FDF778FCFDF76CFC20
:102890004FF47A7190FBF1F201FB1204204670BDF7
:1028A000F0B58DB00446342221496846FDF76EFC30
:1028B0006069451E642195FBF1F12846EA1705EB96
:1028C0009272C1EBA2014FF4C87295FBF2F28F181D
:1028D0006069C11700EB91718910B0EB810112D1D1
:1028E0006422616991FBF2F302FB131131B992008A
:1028F000616991FBF2F302FB131121B921690229ED
:1029000001DD012600E0002640F26D1005FB00719C
:102910002069401E5DF820000844E1680844064430
:10292000072096FBF0F100FB1160A0610DB0F0BD37
:10293000A08E000810B503E003A004F041FA00E007
:10294000FAE700BF10BD00000D0A5761726E6E6994
:102950006E6721212048617264204661756C742085
:102960004F6363757265640D0A00000010B503E0E3
:1029700003A004F025FA00E0FAE700BF10BD000054
:102980000D0A5761726E6E696E672121204D656D6B
:102990004D616E616765204F6363757265640D0AF2
:1029A0000000000010B502A004F00AFA10BD0000FB
:1029B0000D0A5761726E6E696E672121204E4D4976
:1029C000204F6363757265640D0A000070B50021C5
:1029D00000230F22C4780CB3164C246804F4E0647E
:1029E000C4F5E064210AC1F10403CA40447804FA42
:1029F00003F184781440214309010F4C0678A15556
:102A0000047804F01F050124AC4005786D114FF0E7
:102A1000E02606EB8505C5F8004109E0047804F0DE
:102A20001F050124AC40054D0678761145F8264077
:102A300070BD00000CED00E000E400E080E100E08B
:102A400002490143024A1160704700000000FA0584
:102A50000CED00E0014908627047000000000E42E2
:102A60000A48006840F00400084908600846006809
:102A700040F0020008600648006840F00400044985
:102A8000086000BF00BF30BF70470000007000400A
:102A900010ED00E010B502A004F092F910BD0000A6
:102AA0000D0A5761726E6E696E6721212050656E46
:102AB0006453564320657863657074696F6E204F68
:102AC0006363757265640D0A0000000010B54FF471
:102AD000C0725F217F2004F01BF902F0FDFC03F0BF
:102AE00017FD1C48FFF7ECF903F0D2FD03F0C2FC20
:102AF00003F020FE00F0F7F9174800F067F9FEF741
:102B000019F980211548FFF701FD4FF48071134832
:102B1000FFF7FCFC1248FFF7D3F900F0BDF91149AB
:102B200008601148FEF77AFA1048007801280AD1A7
:102B30000FA004F045F9FEF725FF01F065F94FF409
:102B40007A7005F079FFFFF7E3FC1148FFF7B8F959
:102B500010BD0000400D0300640200200008014089
:102B600020A1070038000020AC0000202D0000202C
:102B70000D0AB5F4B5E7D6D8C6F4A3ACD6D8D0C202
:102B8000B3F5CABCBBAFBFE2C2D8BCC60D0A0000D9
:102B9000404B4C0001460020034A506820F440405E
:102BA00008435060704700000010024029B1064AF7
:102BB00052690243044B5A6104E0034A526982435A
:102BC000014B5A61704700000010024029B1064ACB
:102BD000D2690243044BDA6104E0034AD2698243BA
:102BE000014BDA61704700000010024029B1064A2B
:102BF00012690243044B1A6104E0034A12698243DA
:102C0000014B1A61704700000010024029B1064ACA
:102C100092690243044B9A6104E0034A9269824339
:102C2000014B9A61704700000010024029B1064A2A
:102C3000D2680243044BDA6004E0034AD26882435C
:102C4000014BDA6070470000001002400149086043
:102C500070470000400442420348406A40F08070E0
:102C600001494862704700000010024030B5002161
:102C70000022002400232D4D6D6805F00C0121B1C8
:102C8000042905D0082923D105E0294D056022E05B
:102C9000274D05601FE0254D6D6805F47012234D2A
:102CA0006D6805F48034022505EB92421CB9214D74
:102CB000554305600BE01D4D6D6815F4003F03D0D2
:102CC0001C4D5543056002E0194D5543056002E077
:102CD000174D056000BF00BF144D6D6805F0F00191
:102CE0000909154D6B5C0568DD4045600F4D6D6849
:102CF00005F4E061090A104D6B5C4568DD408560B4
:102D00000A4D6D6805F46051C90A0B4D6B5C45684E
:102D1000DD40C560054D6D6805F44041890B074DE8
:102D20006B5CC568B5FBF3F5056130BD0010024072
:102D300000127A0000093D00140000202400002049
:102D400010B501460022002300204A11012A02D1B9
:102D5000094C236806E0022A02D1074C236A01E0ED
:102D6000054C636A01F01F02012494401C4201D00B
:102D7000012000E0002010BD0010024000210A4A9E
:102D800011700A4A82F82010012802D0042808D1C4
:102D900003E00121044A117004E00521024A117088
:102DA00000E000BF00BF704720100240001002404A
:102DB00001490860704700003C0442420249096A28
:102DC0000143014A116270470010024010B50446E9
:102DD0000420FEF7BFF8A0F52541A53907D000F083
:102DE00021F84AF2A5510420FEF7C8F80CE07B2038
:102DF000FFF7A6FF18B101200549087002E07A200C
:102E0000FFF79EFF00F0BAF8FFF726FF10BD0000A5
:102E10002D000020024909888143014A1180704732
:102E20000428004010B501214FF0C050FFF7CEFE3E
:102E30000120FFF70FFEFEF785F80120FFF79EFF48
:102E400000BF4120FFF77CFF0028FAD04FF48070CC
:102E5000FFF7B4FF0120FFF7ABFF00F08FF800F0A1
:102E600083F847F6FF7000F06FF800F07DF810BDB2
:102E70000348008840F010000149088070470000B6
:102E800004280040034800884FF6EF7108400149CC
:102E90000880704704280040002103480188001F73
:102EA000008841EA004070471C280040014600208D
:102EB000064A12880A40D0B2044A121F12880A42F7
:102EC00002D008B1012000E0002070470428004033
:102ED00010B50120FFF7EAFF20B10120FFF79AFFAC
:102EE00000F042F810BD08B54FF4A060FFF7A8FD50
:102EF00003208DF8000002208DF801008DF80200FB
:102F000001208DF803006846FFF760FD08BD000052
:102F100000B50246FFF7ACFF100C03490880091DFD
:102F20000A80FFF7AFFF00BD2028004000B5024631
:102F3000FFF79EFF100C03490880091D0A80FFF768
:102F4000A1FF00BD1828004000B50246FFF790FF22
:102F5000C2F3034003490880091D0A80FFF792FF6E
:102F600000BD00000828004000BF0348008810F0A2
:102F7000200FFAD07047000004280040064800885F
:102F80004FF6F77108400449088000BF02480088E6
:102F900010F0080FFAD07047042800402DE9F84FD0
:102FA00004462046FDF788FB4FF08B410090FDF76B
:102FB000B2F98346FDF7EFFB07464FF06632114B3F
:102FC000FDF790FA0546FDF721FC81460E4948467B
:102FD000FDF76BF9824600215046FDF733FC02D223
:102FE0004FF0000A0AE05046FDF7D5FB05460022E7
:102FF000064BFDF7F7FB01D2DFF814A05046BDE801
:10300000F88F000066660A40000020420000594028
:103010000000C842014601F00100002207E043061B
:10302000180E491001F001031843531CDAB2072AA5
:10303000F5DB7047014601F00100002209E04FF680
:10304000FF7303EA4000491001F001031843531CC9
:10305000DAB20F2AF3DB704721B1028842F0400256
:10306000028004E002884FF6BF731A400280704766
:1030700070B505460C4616464FF480511048FFF7D0
:1030800043FA032000F0B2F9C4F3074000F0AEF9B0
:10309000C4F3072000F0AAF9E0B200F0A7F904E0B9
:1030A000FF2000F0A3F928706D1C3000A6F101018B
:1030B0008EB2F5D14FF480510148FFF727FA70BD69
:1030C000000C01402DE9F05F07460E4614464FF014
:1030D0000008C146C2460025AB4606F0FF0ACAF109
:1030E0000000C5B22046E11704EB1161C1F30728C7
:1030F000E11704EB11610912A4EB012101F0FF09B2
:10310000BAF1000F20D1B8F1000F05D122463146A7
:10311000384600F0CBF864E009E04FF480723146A5
:10312000384600F0C3F806F5807607F580775FEA49
:103130000800A8F1010101F0FF08EED14A4631462E
:10314000384600F0B3F84CE0B8F1000F18D1A945AB
:1031500010DDA9EB050000F0FF0B2A46314638468A
:1031600000F0A4F82E442F445A463146384600F069
:103170009DF836E022463146384600F097F830E0B8
:10318000601B84B22046E11704EB1161C1F30728EC
:10319000E11704EB11610912A4EB012101F0FF0911
:1031A0002A463146384600F081F82E442F4409E083
:1031B0004FF480723146384600F078F806F5807694
:1031C00007F580775FEA0800A8F1010101F0FF0828
:1031D000EED1B9F1000F04D04A463146384600F02E
:1031E00065F8BDE8F09F000000B587B00121082018
:1031F000FFF70CFD01218803FFF7E8FC4FF40050B6
:10320000ADF8040003208DF8060018208DF80700A3
:1032100001A92448FFF7E6F84FF48040ADF8040018
:1032200001A92048FFF7DEF84FF40040ADF8040094
:1032300001A91C48FFF7D6F84FF48050ADF8040000
:1032400010208DF8070001A91648FFF7CBF84FF4BE
:1032500080511448FFF75AF90020ADF808004FF4E8
:103260008270ADF80A000020ADF80C000220ADF825
:103270000E000120ADF810004002ADF81200082049
:10328000ADF814000020ADF816000720ADF81800C6
:1032900002A9054800F012F901210348FFF7DCFEFE
:1032A00007B000BD000C01400038004070B5054675
:1032B0000C46164600F0D0F84FF480511348FFF743
:1032C00023F9022000F092F8C4F3074000F08EF8D2
:1032D000C4F3072000F08AF8E0B200F087F8B6F5F2
:1032E000807F01DD4FF4807603E0287800F07EF8DF
:1032F0006D1C3000A6F101018EB2F6D14FF4805161
:103300000248FFF703F900F08DF870BD000C014092
:1033100010B500244FF480510C48FFF7F5F8AB20AE
:1033200000F064F8FF2000F061F8FF2000F05EF884
:10333000FF2000F05BF8FF2000F058F804464FF43F
:1033400080510248FFF7E2F8204610BD000C014012
:103350002DE9F04100240025002600274FF480517C
:103360000F48FFF7D1F89F2000F040F8FF2000F051
:103370003DF80546FF2000F039F80646FF2000F032
:1033800035F807464FF480510548FFF7BFF8280489
:1033900040EA062040EA07042046BDE8F08100002C
:1033A000000C014010B5044600F056F800F03AF861
:1033B0004FF480510C48FFF7A7F8202000F016F8D2
:1033C000C4F3074000F012F8C4F3072000F00EF831
:1033D000E0B200F00BF84FF480510348FFF796F885
:1033E00000F020F810BD0000000C014010B50446AC
:1033F00000BF02210A4800F053F80028F9D0214606
:10340000074800F059F800BF0121054800F048F8CE
:103410000028F9D0024800F04CF8C0B210BD0000FE
:103420000038004010B500244FF480510948FFF7E0
:103430006BF80520FFF7DAFF00BFFF20FFF7D6FF8C
:10344000044614F0010FF8D14FF480510148FFF702
:103450005DF810BD000C014010B54FF480510648D6
:10346000FFF752F80620FFF7C1FF4FF480510248E2
:10347000FFF74CF810BD0000000C014010B54FF4F0
:1034800080510648FFF740F8B920FFF7AFFF4FF42F
:1034900080510248FFF73AF810BD0000000C0140CF
:1034A0000246002013890B4201D0012000E00020D9
:1034B00070470146888970478181704710B50022A6
:1034C000028802F441520B884C8823438C882343A2
:1034D000CC8823430C8923434C8923438C89234381
:1034E000CC8923431A430280838B4FF2FF7423401D
:1034F00083830B8A038210BD10B502A003F060FC29
:1035000010BD00000D0A5761726E6E696E67212151
:1035100020535643616C6C20657863657074696FE5
:103520006E204F6363757265640D0A002DE9FF4FCD
:10353000ADF27C4D804689461F460420CDF87804C4
:103540000520CDF874040120CDF8700459A85890D6
:10355000CDF85C914FF0000A00200B9008900024F9
:10356000079006900590102004900C2003900620F0
:1035700002900025002001907979387901EB002034
:1035800080B20A90DDF860A140F20B315046FCF7A2
:1035900016FEA3208DF8640120208DF8650100BF80
:1035A00004E0395D5AA80155601CC4B2062CF8DB52
:1035B000DDF870048DF86E010A9804F0EAFCADF8AD
:1035C0006F01802000EB0820001D80B2ADF8710172
:1035D000BDF8710104F0DDFCADF8710101208DF83A
:1035E00073015798D0B1DDF884040690002411E0EF
:1035F00004EB440202EB041209EB420104EB440227
:1036000002EB04135DAA02EB43002622FCF7BEFD89
:10361000601CC4B206988442EADB4BE0A8F10200C9
:103620000A2843D2DFE800F0054206422A42364229
:10363000422B3EE06E4804F09FFC5D90012159A8AA
:1036400081826C48017A59A881756B4804F094FC1A
:10365000CDF89A01032159A841876848007DA0F55B
:10366000FA60C1B28DF8A0116448017C8DF8A111F7
:10367000017B8DF8A211022006901AE019E0604843
:1036800004F07AFC5D90012159A8818281750120A6
:1036900006900EE05648E03004F06EFC5D9001218B
:1036A00059A8818281750120069002E000200690D1
:1036B00000BF00BF00240FE004EB440000EB041146
:1036C0005DA800EB41000079801DC5B20598284433
:1036D000C0B20590601CC4B206988442ECDB059829
:1036E0000C30ADF86601BDF8660104F052FCADF88F
:1036F0006601102251460CA8FCF748FD4FF6FF70FA
:10370000ADF86C0405981030C6B21020019000246A
:103710002FE004EB440000EB04115DA800EB410A2C
:1037200004EB440000EB04115DA800EB41000079BC
:10373000801DC5B204EB440101EB04125DA901EB4D
:103740004201888804F025FC04EB440101EB0412DB
:103750005DA901EB420188800CAA019950182A4604
:103760005146FCF713FD01982844C0B20190601C3B
:10377000C4B206988442CCDB31460CA8FDF726FC87
:1037800008900898ADF86C040898C1B20CAA701C97
:10379000115408980112B01C11541648C079002821
:1037A00003DD144890F807B001E04FF0010B002052
:1037B000044615E0B11C0CA800F026F80B900B98FD
:1037C00000B10FE0FFF75CF881B209910D4A0223C6
:1037D000099903FB0120FEF773FB601CC0B204468D
:1037E0005C45E7DB00BF0DF28C4DBDE8F08F0000BB
:1037F00020000060AC000020500000106402002097
:1038000000020060C0C62D0070B506460C460025BB
:10381000FF2C00DDFF24002504E0715D07A003F00C
:10382000CFFA6D1CA542F8DB2146304604F080FB40
:103830000448FEF745FB012070BD00002D2D2578C2
:103840002D2D0000C0C62D0070B5044600250026B1
:103850002046FCF7CBFCC5B266191A20307070BD4B
:103860002DE9F04F99B004460E4691464FF0000BFB
:10387000002018900C900D900025FFF70DFB83465B
:103880008648C0F800B0006885490968A0EB010AC5
:10389000BAF1B40F08D2CAF1B4014FF47A725143AD
:1038A00001FB02F0FEF70CFB002516E07D480088C6
:1038B000FFF774FB02A941F8250051F82500FCF739
:1038C0006AFF07463A460B46294677A003F078FA86
:1038D0007D48FEF7F5FA681CC5B20A2DE6DB4FF409
:1038E00080717A48FEF710FE0A2102A8FEF718FC44
:1038F000C4F802007648007B7549497BC1EB011191
:1039000000EB8100208073480078401CA0716E4855
:10391000FEF7D6FAA0796F490870084600786E491C
:1039200081F84400012001F14403002209210090A4
:103930001046FEF735FA208800128DF83000207806
:103940008DF83100002506E0A01C415DA81C0CAAE2
:103950001154681CC5B2042DF6DBA0798DF8360031
:1039600007200090A1790CAB00220120FEF718FA85
:1039700001205A490870564AD16BD4F80200FCF76E
:103980006BFF06D9524A916BD4F80200FCF764FF32
:1039900037D80120189001F00DFE20884C49098885
:1039A00000EBC120A0F16C500E900E9804F0E4FAE8
:1039B0000E900420ADF83C00002506E0A01C415DFF
:1039C0000DF13E004155681CC5B2BDF83C00A8424F
:1039D000F4DC334601220EA90420FFF7A7FD4A4676
:1039E00031460320FDF77EFF3D4908700846007808
:1039F000012801D10020087001F064FE012039493E
:103A00000870344800783849097888420DDA494608
:103A1000304601F0FDFC189810B9012033490870B8
:103A20002B49088804F026F934E02A4800782E490A
:103A3000097888422ED14946304601F0E9FC2C48ED
:103A4000FEF73EFAFDF7CCFF21490872224890F8B4
:103A50004800012803D100201F4981F8480001F0E7
:103A6000A9FD304601F0D8FF4A4631460320FDF754
:103A700039FF1B49087008460078012801D1002051
:103A8000087001F01FFE01201649087010490888CF
:103A900004F0F0F819B0BDE8F08F00003C00002001
:103AA000380000209E0000200D0A4E4F3A25642069
:103AB0002073656E736F725F636F6C6C6563743ACD
:103AC0002025302E3266000020A1070000080140AA
:103AD000AC00002040000020EC0000202B00002063
:103AE0002E0000202F000020300000202A0000209F
:103AF000A086010030B5B9B0C82107A8FCF75FFB6C
:103B0000142102A8FCF75BFB59A107A8FCF762FB94
:103B10005A4B5BA2142102A803F062F902A907A87C
:103B2000FCF758FB57A107A8FCF754FB534B103385
:103B300053A2142102A803F053F902A907A8FCF725
:103B400049FB51A107A8FCF745FB4C4B20334CA285
:103B5000142102A803F044F902A907A8FCF73AFBD4
:103B60004BA107A8FCF736FB44491239886BFCF7D8
:103B700012FE4AA2CDE90001142102A803F030F997
:103B800002A907A8FCF726FB46A107A8FCF722FB21
:103B90003A491239C86BFCF7FEFD40A2CDE900019D
:103BA000142102A803F01CF902A907A8FCF712FBD4
:103BB0003FA107A8FCF70EFB3048123883883FA2CC
:103BC000142102A803F00CF902A907A8FCF702FBD4
:103BD0003BA107A8FCF7FEFA28481238038837A251
:103BE000142102A803F0FCF802A907A8FCF7F2FAD6
:103BF00037A107A8FCF7EEFA2048123843882FA215
:103C0000142102A803F0ECF802A907A8FCF7E2FAD5
:103C100032A107A8FCF7DEFA18481238C37927A2A8
:103C2000142102A803F0DCF802A907A8FCF7D2FAD5
:103C30002DA107A8FCF7CEFA10481238037A2CA25F
:103C4000142102A803F0CCF802A907A8FCF7C2FAD5
:103C50002948FEF735F907A928A003F0B1F826484E
:103C6000FEF72EF907A8FDF72FF939B030BD000097
:103C70000D50686F6E65204E756D3A00BE000020D5
:103C800025732C0049503A00504F52543A0000001E
:103C90004C4F574C4556454C3A00000025302E32CB
:103CA000662C0000484947484C4556454C3A0000B0
:103CB000537461727454696D653A000025642C0078
:103CC000436F6C6C656374506572696F643A000091
:103CD00053656E64436F756E743A000052455452DA
:103CE00059204E554D3A00004241545445523A0035
:103CF00025642C0D0000000080841E000D0A207435
:103D000068652064657669636520736574207061F9
:103D100072616D65746F722069732025732C0D0AB2
:103D20000000000010B500F001F810BD0CB5002037
:103D3000019000903248006840F4803030490860BB
:103D400000BF2F48006800F4003000900198401C2C
:103D50000190009818B90198B0F5A06FF1D12848EA
:103D6000006810F4003F02D00120009001E0002024
:103D700000900098012842D12248006840F01000CD
:103D8000204908600846006820F0030008600846E3
:103D9000006840F00200086019484068184948600F
:103DA0000846406848600846406840F480604860C3
:103DB0000846406820F47C1048600846406840F49B
:103DC000E81048600846006840F08070086000BF56
:103DD0000B48006810F0007FFAD00948406820F0D6
:103DE0000300074948600846406840F00200486008
:103DF00000BF0348406800F00C000828F9D10CBD52
:103E0000001002400020024010B50021602004F0A4
:103E1000FFFE602003F034FE0221612004F0F8FE72
:103E2000612003F02DFE32210F2004F0F1FE0F205F
:103E300003F026FE1C21142004F0EAFE142003F0F7
:103E40001FFEED21622004F0E3FE622003F018FE65
:103E50008021632004F0DCFE632003F011FEB82112
:103E6000642004F0D5FE642003F00AFE14216520CE
:103E700004F0CEFE652003F003FE8F21662004F0DF
:103E8000C7FE662003F0FCFD0821672004F0C0FE99
:103E9000672003F0F5FD3221692004F0B9FE6920A6
:103EA00003F0EEFD1F216A2004F0B2FE6A2003F049
:103EB000E7FD40216B2004F0ABFE6B2003F0E0FD3A
:103EC0000621682004F0A4FE682003F0D9FD0F212C
:103ED0006C2004F09DFE6C2003F0D2FD1C216D20AF
:103EE00004F096FE6D2003F0CBFD26216E2004F039
:103EF0008FFE6E2003F0C4FD27216F2004F088FEA2
:103F00006F2003F0BDFD0721702004F081FE7020BA
:103F100003F0B6FD1021712004F07AFE712003F049
:103F2000AFFD1E21722004F073FE722003F0A8FD85
:103F30001221732004F06CFE732003F0A1FD022116
:103F4000742004F065FE742003F09AFD05217520AD
:103F500004F05EFE752003F093FD0521762004F049
:103F600057FE762003F08CFD0A21772004F050FEE6
:103F7000772003F085FD0421782004F049FE7820A5
:103F800003F07EFD0821792004F042FE792003F041
:103F900077FD00217A2004F03BFE7A2003F070FDCB
:103FA00010BD00002DE9F04FADF5137D8346FEA155
:103FB00003C9929191901C22FD498AA8FCF7E6F86A
:103FC0001C22FB491C3183A8FCF7E0F81C22F849AD
:103FD00038317CA8FCF7DAF82022F549543174A86E
:103FE000FCF7D4F82022F24974316CA8FCF7CEF823
:103FF0002022EF49943164A8FCF7C8F82022EC494C
:10400000B4315CA8FCF7C2F82422E949D43153A8A2
:10401000FCF7BCF82422E649F8314AA8FCF7B6F8C8
:104020001422E44945A8FCF7B1F81422E2A140A803
:10403000FCF7ACF800203C903D903E903F903890CB
:1040400039903A903B90C82106A8FCF7B8F80025B3
:104050000026A94600240020059004900390824683
:10406000DAA15846FEF752F90546002D01F0C88046
:10407000DA4885420FD20F3500BF09E028782228A0
:1040800000D107E028783CA908556D1C601CC4B21B
:10409000102CF3DB00BF0D2C08DB22463CA9D048D6
:1040A000FCF774F83CA9CFA002F08AFE0025BEA15F
:1040B0005846FEF72BF90546002DD7D091A8FCF7FE
:1040C00095F840F2E731081ACC490844A84241F279
:1040D000978091A8FCF78AF8461900253146C8A0B8
:1040E00002F06EFE6CA8FCF781F807B25846FCF7A8
:1040F0007DF80FFA80F83B4642466CA95846FEF719
:10410000BBF80546002D7DD06CA8FCF76FF840F297
:10411000E731081A401EB9490844A84272D96CA870
:10412000FCF764F84619002408E0305D302802DB13
:10413000305D392800DD03E0601CC4B2042CF4DBE0
:1041400000BF1CB9B7A002F03BFE3CE0042C00DD30
:1041500004240020389039903A903B902246314612
:1041600038A8FCF713F838A803F00EFCB54908800E
:104170000846008800129A4981F83E00B14801784B
:10418000974880F83F1038A9AFA002F019FEAD485B
:104190000188B9A002F014FE4FF0000A0AE090482E
:1041A0003E3010F80A10C0A002F00AFE0AF1010029
:1041B00000F0FF0ABAF1020FF1DB022188483E301D
:1041C00002F040FC8146B9F1010F20D1C2A002F0FB
:1041D000F7FDCC48FDF774FECBA001F03BF9C821F8
:1041E00006A8FBF7ECFF97480388D1A2C82106A8D0
:1041F00002F0F6FD06A9D4A002F0E2FDC148FDF7E9
:104200005FFE00E00FE006A8FCF75EFE08E0D5A028
:1042100002F0D6FDBB48FDF753FEE2A001F01AF90B
:104220004FF00009002564A8FBF7E0FF07B25846ED
:10423000FBF7DCFF0FFA80F83B46424664A958467C
:10424000FEF71AF80546002D7ED064A8FBF7CEFFD6
:1042500040F2E731081A401E68490844A84273D961
:1042600064A8FBF7C3FF4619002408E0305D30283E
:1042700002DB305D392800DD03E0601CC4B2042C91
:10428000F4DB00BF1CB967A002F09AFD3CE0042CEF
:1042900000DD04240020389039903A903B9022466B
:1042A000314638A8FBF772FF38A803F06DFB65496B
:1042B0004880084640880012494981F8400061481A
:1042C0008178474880F8411038A95FA002F078FD56
:1042D0005C48418868A002F073FD4FF0000A0AE0D4
:1042E0003F48403010F80A106FA002F069FD0AF153
:1042F000010000F0FF0ABAF1020FF1DB0321384898
:10430000403002F09FFB8146B9F1010F23D1B4A0E8
:1043100002F056FD7B48FDF7D3FDBBA001F09AF8F3
:104320007848FDF7CDFDC82106A8FBF748FF4548B2
:104330004388BDA2C82106A802F052FD06A982A0AA
:1043400002F03EFD6F4800E011E0FDF7B9FD06A860
:10435000FCF7BAFD08E0BBA002F032FD6948FDF7AA
:10436000AFFDC7A001F076F84FF0000900258AA83C
:10437000FBF73CFF07B23B464FF47A728AA91F480D
:10438000FDF77AFF0546002D0CD08AA8FBF72EFF1B
:1043900040F2E731081A0F3818490844A84201D9F9
:1043A0008AA889E1E1E100002B33322200000000FD
:1043B0002C8D0008488E000863617369635F736524
:1043C000745F706172616D6574657200225245435D
:1043D00020554E524541442200000000420A002070
:1043E000EC0000200D0A43757272656E7450686FA0
:1043F0006E654E756D3A25730D0A00007806002033
:104400000D0A526563656976652053686F72742082
:104410004D6573736167652069733A2025730D0AD2
:10442000000000000D0A4D657373616765207365B8
:104430007420696E707574204552524F5221210DBF
:104440000A000000AC0000200D0A2D2D2D2D2D643A
:10445000617461206265666F726520777269746548
:1044600020696E20666C617368212D2D2D2D2573BA
:104470002D2D2D2D000000000D0A2D2D2D2D2D642C
:10448000617461206265666F726520777269746518
:1044900020696E20666C617368212D2D2D2D256499
:1044A0002D2D2D2D000000000D0A2D2D2D2D2D64FC
:1044B000617461206265666F7265207772697465E8
:1044C00020696E20666C617368212D2D2D2D257855
:1044D0002D2D2D2D000000000D0A537461727420E3
:1044E000436F6C6C656374506572696F642075709E
:1044F0006C6F6164207375636365737321210D0AAA
:104500000000000080841E000D537461727420430B
:104510006F6C6C656374506572696F642075706C44
:104520006F6164207375636365737321210D0000EF
:104530000D636F6C6C65637420706572696F6420C5
:104540006973202564200D000D0A53656E64206395
:1045500068617220746F2070686F6E652025730D1E
:104560000A0000000D0A496E70757420436F6C6C70
:10457000656374506572696F64206E6F7420636F39
:104580007272656374210D0A506C656173652063F6
:104590006865636B20616E642072657472792E0D9C
:1045A0000A0000000D496E70757420436F6C6C65D5
:1045B0006374506572696F64206E6F7420636F72EC
:1045C00072656374210D506C656173652063686565
:1045D000636B20616E642072657472792E0D000029
:1045E0000D0A53746172742053656E64436F756E67
:1045F000742075706C6F6164207375636365737389
:1046000021210D0A000000000D53656E64436F7593
:104610006E742075706C6F6164207375636365736D
:104620007321210D000000000D73656E6420636F1F
:10463000756E742074696D65206973202564200D82
:10464000000000000D0A496E7075742053656E6499
:10465000436F756E74206E6F7420636F7272656342
:1046600074210D0A506C6561736520636865636B26
:1046700020616E642072657472792E0D0A0000004C
:104680000D496E7075742053656E64436F756E745A
:10469000206E6F7420636F7272656374210D506CAD
:1046A0006561736520636865636B20616E64207269
:1046B000657472792E0D0000FBF798FD46190024F1
:1046C00008E0305D302802DB305D392800DD03E092
:1046D000601CC4B2102CF4DB00BF0F2C01DC0B2CCF
:1046E00004DAAFF2C02002F06BFB0DE01021E548C8
:1046F000FBF765FD22463146E248FBF747FD042102
:10470000E04802F09FF98146B9F1010F21D1DEA006
:1047100002F056FBE648FDF7D3FBE6A000F09AFE58
:10472000E348FDF7CDFBC82106A8FBF748FDD54BB4
:10473000EAA2C82106A802F053FB06A9AFF2F810BE
:1047400002F03EFBDA48FDF7BBFB06A8FCF7BCFB1A
:1047500008E0E9A002F034FBD548FDF7B1FBF6A074
:1047600000F078FE4FF00009002583A8FBF73EFD1E
:1047700007B23B464FF47A7283A9FE48FDF77CFDF1
:104780000546002D6BD083A8FBF730FD40F2E731E2
:10479000081A1038F7490844A84260D983A8FBF7E3
:1047A00025FD461900240BE0305D302802DB305D2A
:1047B000392803DD305D2E2800D003E0601CC4B230
:1047C000102CF1DB00BF0F2C01DC072C04DAAFF258
:1047D000AC3002F0F5FA10E01021AA481030FBF7D7
:1047E000EEFC22463146A7481030FBF7CFFC0521EE
:1047F000A448103002F026F98146B9F1010F22D108
:10480000DDA002F0DDFAAA48FDF75AFBE2A000F0B5
:1048100021FEA748FDF754FBC82106A8FBF7CFFCF3
:10482000984B1033E4A2C82106A802F0D9FA06A9D1
:10483000AFF2EC2002F0C4FA9D48FDF741FB06A858
:10484000FCF742FB08E0E1A002F0BAFA9848FDF755
:1048500037FBEDA000F0FEFD4FF0000900257CA81D
:10486000FBF7C4FC07B23B464FF47A727CA9C148FF
:10487000FDF702FD0546002D69D07CA8FBF7B6FCCC
:1048800040F2E731081A801FBA490844A8425ED9AD
:104890007CA8FBF7ABFC4619002408E0305D30280B
:1048A00002DB305D392800DD03E0601CC4B2062C59
:1048B000F4DB00BF022C01DB052C04DDAFF29C40D1
:1048C00002F07EFA10E06F4812380021C0F8321072
:1048D000C186224631463230FBF758FC0621694832
:1048E000203002F0AFF88146B9F1010F23D13146F3
:1048F000D3A002F065FA6E48FDF7E2FAD9A000F005
:10490000A9FD6B48FDF7DCFAC82106A8FBF757FCA8
:104910005C4B2033DBA2C82106A802F061FA06A98D
:10492000AFF2DC3002F04CFA6148FDF7C9FA06A894
:10493000FCF7CAFA08E0D8A002F042FA5C48FDF79A
:10494000BFFAE4A000F086FD4FF00009002553A84F
:10495000FBF74CFC07B23B464FF47A7253A98548EB
:10496000FDF78AFC0546002D7FD053A8FBF73EFCDF
:1049700040F2E731081AC01E7E490844A84274D9A3
:1049800053A8FBF733FC461900240BE0305D3028B8
:1049900002DB305D392803DD305D2E2800D003E0D6
:1049A000601CC4B2052CF1DB00BF24B9AFF28C50FF
:1049B00002F006FA21E0052C00DD052400203890E5
:1049C00039903A903B902246314638A8FBF7DEFBFF
:1049D00038A802F0FDFE2B4912398863886BFBF77B
:1049E000DAFE07463A460B46C9A002F0E9F907216C
:1049F0002448263002F026F88146B9F1010F28D16B
:104A0000CFA002F0DDF92A48FDF75AFAD7A000F04E
:104A100021FD2748FDF754FAC82106A8FBF7CFFB74
:104A200018491239886BFBF7B6FEDAA2CDE900010E
:104A3000C82106A802F0D4F906A9AFF2F44002F0AA
:104A4000BFF91B48FDF73CFA06A8FCF73DFA09E060
:104A50000BE0D7A002F0B4F91548FDF731FAE4A055
:104A600000F0F8FC4FF00009002574A8FBF7BEFB2E
:104A700007B25846FBF7BAFB0FFA80F83B464246AE
:104A800074A9D5E1BE0000200D0A416C61726D2051
:104A900070686F6E65206E756D6265722075706CE2
:104AA0006F6164207375636365737321210D0A0060
:104AB00080841E000D416C61726D2070686F6E65A0
:104AC000206E756D6265722075706C6F6164207305
:104AD00075636365737321210D0000000D416C61E6
:104AE000726D2070686F6E65206E756D62657220E4
:104AF0006973202573200D000D0A416C61726D20D1
:104B000070686F6E65206E756D626572206E6F7471
:104B100020636F7272656374210D0A506C65617356
:104B20006520636865636B20616E642072657472D2
:104B3000792E0D0A000000000D416C61726D20702D
:104B4000686F6E65206E756D626572206E6F742081
:104B5000636F7272656374210D506C6561736520BB
:104B6000636865636B20616E642072657472792E70
:104B70000D000000780600200D0A536572766572FC
:104B80002049502075706C6F616420737563636594
:104B9000737321210D0A00000D5365727665722032
:104BA00049502075706C6F61642073756363657321
:104BB0007321210D000000000D736572766572206F
:104BC0004950206973202573200D00000D0A496E9D
:104BD00070757420736572766572204950206E6F0F
:104BE0007420636F7272656374210D0A506C656185
:104BF000736520636865636B20616E642072657401
:104C000072792E0D0A0000000D496E7075742073C4
:104C10006572766572204950206E6F7420636F72E2
:104C200072656374210D506C6561736520636865FE
:104C3000636B20616E642072657472792E0D0000C2
:104C40000D0A53657276657220706F7274207570EC
:104C50006C6F6164207375636365737321213A25FA
:104C6000730D0A000D53657276657220706F727451
:104C70002075706C6F616420737563636573732155
:104C8000210D00000D53657276657220706F72748D
:104C90002069732025730D000D0A496E707574200C
:104CA00073657276657220706F7274206E6F7420F7
:104CB000636F7272656374210D0A506C6561736570
:104CC00020636865636B20616E642072657472791D
:104CD0002E0D0A000D496E7075742073657276652D
:104CE0007220706F7274206E6F7420636F727265C1
:104CF0006374210D506C6561736520636865636B37
:104D000020616E642072657472792E0D00000000BF
:104D10000D0A2D2D2D2D2D64617461206265666F45
:104D2000726520777269746520696E20666C6173A4
:104D300068212D2D2D2D25662D2D2D2D00000000F7
:104D40000D0A6C6F7720416C61726D20746872651A
:104D500073686F6C642075706C6F61642073756329
:104D60006365737321210D0A000000000D6C6F77DD
:104D700020416C61726D207468726573686F6C6439
:104D80002075706C6F616420737563636573732144
:104D9000210D00000D6C6F7720616C61726D206CCD
:104DA0006576656C2069732025302E3266200D00F3
:104DB0000D0A496E70757420616C61726D207468A3
:104DC000726573686F6C64206E6F7420636F7272AB
:104DD000656374210D0A506C6561736520636865B5
:104DE000636B20616E642072657472792E0D0A0007
:104DF0000D496E70757420616C61726D20746872FB
:104E00006573686F6C64206E6F7420636F72726577
:104E10006374210D506C6561736520636865636B15
:104E200020616E642072657472792E0D000000009E
:104E30005846FDF721FA0546002D7DD074A8FBF7F2
:104E4000D5F940F2E731081A401EEF490844A8425C
:104E500072D974A8FBF7CAF94619002408E0305D3E
:104E6000302802DB305D392800DD03E0601CC4B26D
:104E7000042CF4DB00BF24B9AFF6582001F0A0FFEA
:104E80003AE0042C00DD04240020389039903A9058
:104E90003B902246314638A8FBF778F938A802F053
:104EA00073FDDA498880084680880012D84981F865
:104EB0004200D6480179D64880F84310D34881880B
:104EC000AFF64C2001F07CFF4FF0000A0BE0D04819
:104ED000423010F80A10AFF6302001F071FF0AF1ED
:104EE000010000F0FF0ABAF1020FF0DB0821C84808
:104EF000423001F0A7FD8146B9F1010F24D1C5A0D0
:104F000001F05EFFCD48FCF7DBFFCDA000F0A2FA78
:104F1000CA48FCF7D5FFC82106A8FBF750F9BB48E3
:104F20008388D1A2C82106A801F05AFF06A9AFF6CE
:104F3000E81001F045FF00E012E0C048FCF7C0FFB8
:104F400006A8FBF7C1FF08E0CE4801F039FFBB48D7
:104F5000FCF7B6FFCCA000F07DFA4FF00009002569
:104F60005CA8FBF743F907B25846FBF73FF90FFA85
:104F700080F83B4642465CA95846FDF77DF9054658
:104F8000002D7ED05CA8FBF731F940F2E731081A1A
:104F9000401E9D490844A84273D95CA8FBF726F936
:104FA0004619002408E0305D302802DB305D3928E6
:104FB00000DD03E0601CC4B2022CF4DB00BF24B9A6
:104FC000AFF6A03001F0FCFE28E0022C00DD022448
:104FD0000020389039903A903B902246314638A8CC
:104FE000FBF7D4F838A802F0CFFC8849C87138A97B
:104FF000AFF6AC3001F0E4FE8448C179AFF68830FA
:1050000001F0DEFE8148C179AFF6643001F0D8FED0
:105010000A217E48C01D01F015FD8146B9F1010F3E
:1050200023D1A9A001F0CCFE8448FCF749FFAFA032
:1050300000F010FA8148FCF743FFC82106A8FBF7EF
:10504000BEF87248C379B2A2C82106A801F0C8FE12
:1050500006A9AFF60C3001F0B3FE7848FCF730FF3C
:1050600006A8FBF731FF09E00BE0AFA001F0A8FEB6
:105070007248FCF725FFBBA000F0ECF94FF00009E7
:1050800000254AA8FBF7B2F807B23B464FF47A7204
:105090004AA95D48FDF7F0F80546002D71D04AA8F1
:1050A000FBF7A4F840F2E731081AC01E564908443D
:1050B000A84275D94AA8FBF799F8461900240BE0D5
:1050C000305D302802DB305D392803DD305D2E286D
:1050D00000D003E0601CC4B2052CF1DB00BF24B992
:1050E000AFF6C04001F06CFE21E0052C00DD052488
:1050F0000020389039903A903B902246314638A8AB
:10510000FBF744F838A802F063FB4049C863C86B5A
:10511000FBF741FB07463A460B46AFF20C4001F065
:105120004FFE0B2139483C3001F08CFC8146B9F12F
:10513000010F27D199A001F043FE4048FCF7C0FEC3
:10514000A1A000F087F93D48FCF7BAFEC82106A8E7
:10515000FBF735F82D49C86BFBF71DFBA4A2CDE981
:105160000001C82106A801F03BFE06A9AFF62840C1
:1051700001F026FE3148FCF7A3FE06A8FBF7A4FECB
:105180000BE00DE0AFF2D83001F01AFE2B48FCF72F
:1051900097FEAFF2A43000F05DF94FF00009002552
:1051A00045A8FBF723F807B23B464FF47A7245A9AE
:1051B0005846FDF761F8054655B19448007810B996
:1051C000FCF720FD03E00120114981F8480000258B
:1051D00040A8FBF70BF807B23B464FF47A7240A9A0
:1051E0005846FDF749F8054655B11448FCF768FEE6
:1051F000FEF780FC1148FCF763FEFEF77BFC002500
:105200000DF5137DBDE8F08F78060020AC0000207E
:10521000EC0000200D0A537461727420436F6C6CB3
:105220006563742054696D652075706C6F616420CE
:105230007375636365737321210D0A0080841E00FA
:105240000D537461727420436F6C6C6563742054E9
:10525000696D652075706C6F61642073756363653B
:10526000737321210D0000000D737461727420634B
:105270006F6C6C6563742074696D6520697320259B
:10528000640D00005C8E00080D496E70757420532B
:105290007461727420436F6C6C6563742054696D23
:1052A00065206E6F7420636F7272656374210D5098
:1052B0006C6561736520636865636B20616E642053
:1052C00072657472792E0D000D0A53746172742028
:1052D00052657472794E756D2075706C6F616420C3
:1052E0007375636365737321210D0A000D53746137
:1052F00072742052657472794E756D2075706C6F82
:105300006164207375636365737321210D00000070
:105310000D205265747279204E756D626572206938
:1053200073202564200D00000D0A496E70757420ED
:1053300052657472794E756D206E6F7420636F7252
:1053400072656374210D0A506C6561736520636832
:1053500065636B20616E642072657472792E0D0A2C
:10536000000000000D496E707574205265747279EA
:105370004E756D206E6F7420636F72726563742159
:105380000D506C6561736520636865636B20616EA9
:10539000642072657472792E0D0000000D0A486950
:1053A000676820416C61726D207468726573686F04
:1053B0006C642075706C6F616420737563636573D2
:1053C0007321210D0A0000000D4869676820416CB7
:1053D00061726D207468726573686F6C642075709B
:1053E0006C6F6164207375636365737321210D00B5
:1053F0000D6869676820616C61726D206C65766507
:105400006C2069732025302E32660D00400000208C
:1054100070B504460D4607A002F064FD0B48FCF78A
:105420004FFD2A4621460320FCF75CFA0848FCF7AA
:1054300047FD70BD41542B434D474C3D22524543DF
:1054400020554E52454144220000000060E3160002
:10545000A025260030B5B3B00446C82101A8FAF74C
:10546000AEFEC82101A8FAF7AAFE124B12A2C8216B
:1054700001A801F0B5FC01A802F034FD1248FCF7C8
:105480001FFDC82101A8FAF79AFE2046FAF7AEFEE2
:1054900005462B462246C72101A801F0A1FC01A820
:1054A000FEF7D2F901A802F01DFD0848FCF708FD3F
:1054B00033B030BDEC00002041542B434D47533DE9
:1054C000222573220000000020A1070040420F00A7
:1054D00010B500F095FA10BD30B51A4800681A4AA8
:1054E000B0FBF2F1B1F1807F01D301201DE021F08A
:1054F0007F40401E4FF0E022506150170F220028DD
:1055000007DA13071D0E114B00F00F04241F1D5561
:1055100003E013071C0E0E4B1C5400BF00204FF07D
:10552000E022906107201061002008B100BFFEE773
:105530004FF0E020006920F001004FF0E021086109
:1055400030BD00000000002040420F0018ED00E0D8
:1055500000E400E010B51348006840F00100114974
:10556000086008464068104908400E4948600846EF
:1055700000680E4908400B4908600846006820F49E
:10558000802008600846406820F4FE0048604FF420
:105590001F008860FEF7C6FB4FF0006004490860FA
:1055A00010BD0000001002400000FFF8FFFFF6FEF3
:1055B00008ED00E030B58FB0342102A8FAF7FFFD06
:1055C00000250A24FDF71AF828E01EA002F08AFC44
:1055D0002048FCF775FC2048A0F110031FA23221DF
:1055E000009002A801F0FCFB02A802F07BFC21481D
:1055F000FCF766FC1748FCF763FC0022114602200A
:10560000FCF770F90546601EC4B2012D06D11AA040
:1056100001F0D6FB1F48FCF753FC01E0002CD4DC62
:1056200000BF64B91CA001F0CBFB00F04BF824488C
:10563000FCF746FC08493239088802F01BFB0FB022
:1056400030BD000061742B6D697063616C6C3D311D
:105650000000000000350C00DE00002061742B6D9E
:1056600069707472616E733D312C222573222C2572
:1056700073000000404B4C000D0A546865205443F1
:105680005020636F6E6E656374206973204F4B0DFD
:105690000A00000020A107000D0A54686520436C31
:1056A00069656E7420436F756C64204E6F7420437F
:1056B0006F6E6E65637420544350210D0A00000024
:1056C00080841E0010B503A002F00CFC0248FCF719
:1056D000F7FB10BD2B2B2B0020A1070010B50121DB
:1056E0000F4800F029F9C8B101210D4800F020F859
:1056F000002201210A4800F030F90021084800F09A
:105700001AF8074800F024F80120064908700648F6
:1057100000780649087000200349087010BD000099
:10572000000400409300002091000020950000201C
:10573000CA430282704721B1028842F0010202800E
:1057400004E002884FF6FE731A40028070470000A2
:1057500010B504466848844208D10121C014FDF701
:1057600065FA0021E014FDF761FAC4E0B4F1804F5E
:1057700008D101210846FDF739FA00210120FDF783
:1057800035FAB8E05D48844208D101210220FDF7D6
:105790002DFA00210220FDF729FAACE05848844296
:1057A00008D101210420FDF721FA00210420FDF792
:1057B0001DFAA0E05348844208D101210820FDF7DA
:1057C00015FA00210820FDF711FA94E04E488442B2
:1057D00008D101211020FDF709FA00211020FDF762
:1057E00005FA88E04948844208D101212020FDF7CC
:1057F000FDF900212020FDF7F9F97CE044488442BE
:1058000008D101214014FDF711FA00216014FDF7C1
:105810000DFA70E03F48844209D10121C804FDF728
:1058200005FA00214FF40020FDF700FA63E03A4842
:10583000844209D101210805FDF7F8F900214FF450
:105840008010FDF7F3F956E03448844209D1012174
:105850004805FDF7EBF900214FF40010FDF7E6F9DC
:1058600049E02F48844208D101214020FDF7BEF9CC
:1058700000214020FDF7BAF93DE02A48844208D1D2
:1058800001218020FDF7B2F900218020FDF7AEF95B
:1058900031E02548844208D101218015FDF7A6F9A1
:1058A0000021A015FDF7A2F925E02048844209D186
:1058B00001210804FDF7BAF900214FF48030FDF70B
:1058C000B5F918E01A48844209D101214804FDF7CE
:1058D000ADF900214FF40030FDF7A8F90BE01548B1
:1058E000844208D101218804FDF7A0F900214FF47A
:1058F0008020FDF79BF910BD002C01400004004002
:1059000000080040000C004000100040001400405F
:1059100000340140004C014000500140005401405F
:1059200000180040001C00400020004000400140E2
:10593000004401400048014030B5024600200023E9
:105940000024158A05EA0103958905EA010413B1CB
:105950000CB1012000E0002030BD1AB183890B4357
:10596000838102E083898B438381704730B587B0A0
:105970000446FDF757FA14A001F022FAFDF7F4FAF5
:10598000207C00F5FA600590E07B0490A07B0390FA
:10599000607B0290207B0190E07A00906846FCF7E3
:1059A0007FFF684602F05EFA0546FDF7BFFAFDF795
:1059B000DBFA4AF2A5510420FBF7E0FAFDF7D4FA2E
:1059C000FDF74AF907B030BD0D0A52544320636F0A
:1059D0006E666967757265642062792053657276B8
:1059E00065722E2E2E2E0D0A0000000070B50446A2
:1059F0000D4604F5E1462946304603F075F870BDC2
:105A00000448006820B103480068401E014908604E
:105A100070470000480000202DE9F041ADF5427DBF
:105A2000064600273F4802F0A7FA02900120ADF891
:105A30000C003D48007A8DF80E003C4802F09CFABC
:105A4000CDF82E000321ADF832103948007DA0F5C5
:105A5000FA60C1B28DF834103548017C8DF83510EC
:105A6000017B8DF83610022700244DE00720C0ABE3
:105A70000022611C00900120FCF726F99DF801131B
:105A80009DF8000301EB00201FFA80F8002511E0CB
:105A90002549098808EBC121A1F16C5002F06CFA8C
:105AA000A11C01EB410202EB011102AA02EB410130
:105AB00008606D1C042DEBDB0421A01C00EB4002F0
:105AC00002EB001002AA02EB4000818000250DE0ED
:105AD000A81CC0A9095CA01C00EB400202EB00104E
